:100000000C9417110C9448110C9448110C9448113D
:100010000C9448110C9448110C9448110C944811FC
:100020000C9448110C9448110C9448110C944811EC
:100030000C9448110C9448110C9448110C944811DC
:100040000C9448110C94869B0C9448110C94481104
:100050000C9448110C9448110C94B65B0C94A25A61
:100060000C9448110C94F04C0C9448110C944811C9
:100070000C9448110C9448110C9448110C9448119C
:100080000C945BA30C9448110C9448110C944811E7
:100090000C9448110C9448110C9448110C9448117C
:1000A0000C9448110C9448110C942DA30C944811F5
:1000B0000C9448110C9448110C9448110C94FFA214
:1000C0000C9448110C9448110C9448110C94CE587F
:1000D0000C94A5580C9448110C9448110C94481198
:1000E0000C9448118C11821245144E141B15AA153C
:1000F0000E17761718194E195A196B190D1BBB1BC1
:100100002B1FC01D271E8E1E35206020CC27F022FD
:1001100044235D23E3259D243E27234D2A4D3E4D58
:100120004B4D554D6F4D5A4D6F4D5F4D644D6F4D5D
:100130006C4D43584658355839583F587D584A58A1
:100140004E58545858585C58625866586A587D58EA
:10015000705874587858BE59C359C859D259DC5987
:10016000555AE659EE59F659005A0A5A145A235A62
:100170002D5A555A375A415A4B5A084AD73B3BCE0B
:10018000016E84BCBFFDC12F3D6C74319ABD568396
:100190003DDA3D00C77F11BED9E4BB4C3E916BAA4E
:1001A000AABE000000803F05A84CCDB2D44EB9389D
:1001B00036A9020C50B9918688083CA6AAAA2ABE84
:1001C000000000803F004E414E494E495459494E6F
:1001D00046CDCCCC3D0AD7233C17B7D13877CC2BB2
:1001E000329595E6241FB14F0A000020410000C857
:1001F0004200401C4620BCBE4CCA1B0E5AAEC59DD8
:100200007400407A10F35A00A0724E18090010A52D
:10021000D4E80000E87648170000E40B5402000020
:10022000CA9A3B000000E1F50500008096980000A6
:100230000040420F000000A08601000000102700CF
:10024000000000E803000000006400000000000A55
:1002500000000000000100000000002C76D888DCBF
:10026000674F0823DFC1DFAE59E1B1B796E5E3E49C
:1002700053C63AE651997696E8E6C28426EB898C15
:100280009B62ED407C6FFCEFBC9C9F40F2BAA56F77
:10029000A5F490055A2AF75C936B6CF9676DC11B46
:1002A000FCE0E40D47FEF520E6B500D0ED902E030E
:1002B00000943577050080841E080000204E0A0057
:1002C0000000C80C333333330F986E12831141EFA3
:1002D0008D2114893BE65516CFFEE6DB18D1844B01
:1002E000381BF77C1D901DA4BBE424203284725E71
:1002F000228100C9F124ECA1E53D274D3234004DA7
:100300003233202573004D313036205332353500DD
:100310004D31303920532569004D31393020532576
:1003200069004732380047323900473238004739D0
:10033000300047323800473238205A3000473238D0
:10034000004D38340047312046323030205A302EAC
:100350003000473238004D313037004D31303620D3
:1003600053323535004D3234004D32332025730081
:1003700047393220452573004730205A2573004DF8
:1003800031303920532569004D31393020532569EA
:100390000047323820583020593000434F4D4D55DA
:1003A0004E49434154494F4E0044525952554E0014
:1003B0004552524F525300494E464F004543484F15
:1003C0000047322F47332062616420706172616D93
:1003D00065746572730A005A2070726F6265206FCF
:1003E00075742E206265640A00473238205A204610
:1003F0006F7262696464656E0A00205A3A200020B8
:10040000593A200042656420583A20004D657368CF
:1004100020706F696E742063616E6E6F7420626508
:10042000207265736F6C7665640A0047312046332D
:1004300030303020583020593000456E64206669D5
:100440006C65206C6973740A00426567696E20668A
:10045000696C65206C6973740A002E0A0046696C29
:10046000652862696E292064656C65746564004462
:10047000656C6574696F6E2862696E2920666169B2
:100480006C6564005344207072696E74696E6720F5
:100490006279746520004E6F742053442070726935
:1004A0006E74696E670A0046696C652064656C65E8
:1004B0007465643A0044656C6574696F6E206661AA
:1004C000696C65642C2046696C653A20006F706524
:1004D0006E206661696C65642C2046696C653A2003
:1004E000002569730025696D2025697300256968F9
:1004F0002025696D202569730025696420256968B8
:100500002025696D20256973002569792025696496
:10051000202569682025696D20256973005072695E
:100520006E742074696D653A20000001363726FF2D
:10053000033C3D38FF0E2E303E12FFFF0C0809FF32
:10054000FFFF1A1C18FFFF08440AFF43FFFFFFFFCD
:10055000FFFF50726F7465637465642050696E0AA2
:1005600000BC03B703B003A9039B036F6666004496
:10057000454255473A004D3131332053006F6B00EF
:100580004732382058302059300020573A00436114
:10059000703A454D455247454E43595F504152537D
:1005A00045523A310A004361703A434153455F4C2A
:1005B000494748545F4252494748544E4553533A7D
:1005C000300A004361703A544F47474C455F4C49ED
:1005D000474854533A300A004361703A534F4654E7
:1005E000574152455F504F5745523A300A004361D8
:1005F000703A4C4556454C494E475F444154413A48
:10060000310A004361703A5A5F50524F42453A31C5
:100610000A004361703A4155544F4C4556454C3A97
:10062000310A004361703A5052494E545F4A4F427A
:100630003A310A004361703A50524F475245535382
:100640003A300A004361703A4155544F5245504F79
:1006500052545F54454D503A310A004361703A4557
:100660004550524F4D3A310A004649524D5741527A
:10067000455F4E414D453A4D61726C696E2056653D
:100680007220312E37302E3320424C437265616C1C
:10069000697479334420534F555243455F434F4467
:1006A000455F55524C3A68747470733A2F2F6769DE
:1006B000746875622E636F6D2F4D61726C696E4642
:1006C00069726D776172652F4D61726C696E205031
:1006D000524F544F434F4C5F56455253494F4E3A39
:1006E000312E30204D414348494E455F54595045C5
:1006F0003A456E6465722D3520506C7573204558EF
:100700005452554445525F434F554E543A3120554B
:100710005549443A63656465326132662D3431610E
:10072000322D343734382D396231322D633535630B
:1007300036326633363766660A002F2F20007A5F1E
:100740006D696E3A2000795F6D61783A2000785FBC
:100750006D61783A20005265706F7274696E67201F
:10076000656E6473746F70207374617475730A00BE
:100770004F66660A0046616465204865696768746B
:100780002000426564204C6576656C696E672000C8
:100790004661696C656420746F20656E61626C658A
:1007A00020426564204C6576656C696E670A004D71
:1007B00065736820706F696E742063616E6E6F740C
:1007C000206265207265736F6C7665640A004D3433
:1007D000323120696E636F7272656374207061726A
:1007E000616D657465722075736167650A00546F89
:1007F0006F206661722066726F6D20726566657229
:10080000656E636520706F696E740A00207A70727D
:100810006F62655F7A6F6666736574203D20007A4B
:100820005F6D696E3A20202D3230207A5F6D6178DD
:100830003A20203230005A204F66667365742000DB
:100840004E6F2063617365206C696768740A0041AC
:1008500063746976652045787472756465723A20B0
:1008600000556E6B6E6F776E20636F6D6D616E6499
:100870003A2022004B494C4C45442E2000202D208C
:10088000496E76616C69642065787472756465720E
:10089000206E756D62657220210A002020506C6107
:1008A0006E6E657242756666657242797465733AFA
:1008B00020002046726565204D656D6F72793A2083
:1008C00000436F6D70696C65643A2041707220203E
:1008D0003220323032320A00207C20417574686F39
:1008E000723A20456E6465722D3520506C75730A1E
:1008F00000323032322D30342D303200204C6173D2
:100900007420557064617465643A200056657220E5
:10091000312E37302E3320424C0A004D61726C6903
:100920006E0020536F66747761726520526573653F
:10093000740A00205761746368646F67205265739E
:1009400065740A002042726F776E206F75742052B2
:10095000657365740A002045787465726E616C2059
:1009600052657365740A00506F77657255700A009E
:1009700073746172740A006572726F7220777269A3
:1009800074696E6720746F2066696C650A00205A6E
:100990003A0020593A0020583A00656E6473746F2B
:1009A0007073206869743A2000446F6E652073612B
:1009B00076696E672066696C652E0A004D323900D3
:1009C000473238205830205930004B494C4C454470
:1009D0002E200070012C0190012701B0012201C0DE
:1009E000011D01F00118011002130130020E016017
:1009F00002090190020401C002FF000003FA004056
:100A000003F5008003F000D003EB002004E6007043
:100A100004E100E004DC004005D700C005D200403E
:100A200006CD00D006C8008007C3003008BE00F025
:100A300008B900C009B400B00AAF00B00BAA00D0DA
:100A40000CA500000EA000500F9B00C01096005097
:100A500012910000148C00C0158700B0178200B0FE
:100A6000197D00D01B7800001E730040206E00909E
:100A7000226900F024640040275F0090295A00E0BA
:100A80002B5500102E500020304B0010324600E055
:100A900033410090353C001037370070383200A0E9
:100AA000392D00B03A2800A03B2300603C1E001006
:100AB0003D1900903D1400103E0F00703E0A00C02A
:100AC0003E0500003F0000403FFBFF803FF6FFC0B7
:100AD0003FF1FF544845524D414C2052554E41572D
:100AE000415900546865726D616C2052756E617772
:100AF00061790000002100240027002A002D003029
:100B000000330001010000040107010A0100002276
:100B100000250028002B002E0031003400020100C7
:100B200000050108010B0100002000230026002918
:100B3000002C002F00320000010000030106010913
:100B40000105050505070508080808020202020A52
:100B50000A08080404040401010101010101010360
:100B600003030303030303040707070C0C0C0C0C1B
:100B70000C0C0C0202020206060606060606060B0E
:100B80000B0B0B0B0B0B0B01021020200808102085
:100B90004010204080020102010804020101020409
:100BA00008102040808040201008040201800402C8
:100BB000018040201008040201080402010102041F
:100BC0000810204080010204081020408000000A24
:100BD0000B02090C0D0E08070304010000000000C1
:100BE0000000000000000000000000000000000005
:100BF00000000000000000000012111000000000C2
:100C000000000000000000000000000000000000E4
:100C100000000053657474696E67205472617665D4
:100C20006C20416363656C65726174696F6E3A2014
:100C30000053657474696E672052657472616374E1
:100C400020416363656C65726174696F6E3A200060
:100C500053657474696E67205072696E74204163C5
:100C600063656C65726174696F6E3A2000536574D8
:100C700074696E67205072696E7420616E642054CE
:100C8000726176656C20416363656C65726174693D
:100C90006F6E3A2000205A00205900580020204D45
:100CA00061783A2000205A00205900580020204D39
:100CB000696E3A20004F6E20004F666600536F66E3
:100CC0007420656E6473746F70733A2000206F75C2
:100CD00074206F662072616E67650A0053657276D4
:100CE0006F20003A200020536572766F2000206448
:100CF0003A0020693A0020703A0020643A002069E6
:100D00003A0020703A0043290A0061626C65642051
:100D1000286D696E2074656D702000436F6C6420CF
:100D200065787472756465732061726520004B6428
:100D3000200023646566696E652020444546415560
:100D40004C545F004B69200023646566696E652022
:100D50002044454641554C545F004B7020002364AD
:100D60006566696E65202044454641554C545F00D8
:100D7000504944204175746F74756E652066696EC4
:100D80006973686564212050757420746865206CEF
:100D9000617374204B702C204B6920616E64204B72
:100DA0006420636F6E7374616E74732066726F6D0E
:100DB0002062656C6F7720696E746F20436F6E667A
:100DC000696775726174696F6E2E680A00504944D4
:100DD000204175746F74756E65206661696C656419
:100DE000212074696D656F75740A00504944204173
:100DF00075746F74756E65206661696C6564212019
:100E000054656D706572617475726520746F6F20C2
:100E1000686967680A00204B643A2000204B693AF1
:100E20002000204B703A20000A20436C61737369E4
:100E30006320504944200A002054753A2000204B7A
:100E4000753A2000206D61783A2000206D696E3A75
:100E5000200020643A200020626961733A20002952
:100E60000A002062797465733B206372632000532B
:100E7000657474696E67732053746F72656420289B
:100E800000202863616C63756C6174656429210AB4
:100E90000020213D2000454550524F4D20435243F4
:100EA000206D69736D61746368202D202873746FE1
:100EB000726564292000290A002062797465733BF9
:100EC0002063726320002073746F72656420736501
:100ED0007474696E6773207265747269657665648F
:100EE000202800204D61726C696E3D563432290A0B
:100EF0000028454550524F4D3D00454550524F4DFD
:100F00002076657273696F6E206D69736D617463AD
:100F100068200048617264636F646564204465669C
:100F200061756C742053657474696E6773204C6FBF
:100F3000616465640A00F4010000F40100006400CB
:100F40000000E80300000000964300009643000004
:100F5000A0400000C8410000A0420000A0420000E4
:100F600048443333B9424572726F722077726974A4
:100F7000696E6720746F20454550524F4D210A001D
:100F80004E6F204C696E65204E756D6265722077DC
:100F900069746820636865636B73756D2C204C61A0
:100FA0007374204C696E653A20005072696E7465E6
:100FB000722073746F707065642064756520746F3F
:100FC000206572726F72732E20466978207468658E
:100FD000206572726F7220616E6420757365204D9A
:100FE00039393920746F20726573746172742E20E0
:100FF0002854656D7065726174757265206973201F
:1010000072657365742E205365742069742061665F
:101010007465722072657374617274696E67290AEF
:10102000004E6F20436865636B73756D207769743C
:1010300068206C696E65206E756D6265722C204C3F
:10104000617374204C696E653A2000636865636B58
:1010500073756D206D69736D617463682C204C61CC
:101060007374204C696E653A20004C696E65204EA1
:10107000756D626572206973206E6F74204C6173A8
:1010800074204C696E65204E756D6265722B312C33
:10109000204C617374204C696E653A20004D3131EB
:1010A00030004D3331004D383420582059205A201B
:1010B000450053442072656164206572726F720A44
:1010C00000446F6E65207072696E74696E67206689
:1010D000696C650A0020496E76616C6964206578E8
:1010E000747275646572200020746F6F206C6F6E6F
:1010F0006720657874727573696F6E20707265769B
:10110000656E7465640A0020636F6C642065787492
:10111000727573696F6E2070726576656E74656442
:101120000A006265646C6576656C5F636F756E74EA
:101130005F666F6E743A20303A736176652047328D
:101140003920506F776572636F6E74696E756520B4
:10115000313A6E6F742047323920506F7765726371
:101160006F6E74696E7565006C616E677561676539
:101170003A20303A636E20313A656E20323A70740C
:1011800020333A657320343A646520353A6672201C
:10119000363A747220373A697420383A72750020F2
:1011A000204D383531205A005A2D50726F6265201B
:1011B0004F666673657420286D6D293A0A002044D5
:1011C0000020490020204D333034205000204400BE
:1011D00020490020204D3330312050005049442018
:1011E00073657474696E67733A0A00205A00202090
:1011F0004D3432302053004175746F2042656420B5
:101200004C6576656C696E673A0A00205A00205971
:101210000020204D323036205800486F6D65206F19
:1012200066667365743A0A00204500205A0020590A
:101230000020580020420020540020204D3230353C
:10124000205300416476616E6365643A20533C6DBF
:10125000696E5F66656564726174653E20543C6DBD
:10126000696E5F74726176656C5F666565647261F4
:1012700074653E20423C6D696E5F7365676D656E97
:10128000745F74696D655F6D733E20583C6D617865
:101290005F78795F6A65726B3E205A3C6D61785F5A
:1012A0007A5F6A65726B3E20453C6D61785F655F71
:1012B0006A65726B3E0A0020540020520020204DC7
:1012C000323034205000416363656C65726174692B
:1012D0006F6E2028756E6974732F7332293A20500F
:1012E0003C7072696E745F616363656C3E20523C52
:1012F000726574726163745F616363656C3E2054F0
:101300003C74726176656C5F616363656C3E0A0074
:10131000204500205A0020590020204D3230312035
:1013200058004D6178696D756D20416363656C652A
:10133000726174696F6E2028756E6974732F7332D1
:10134000293A0A00204500205A0020590020204D4B
:101350003230332058004D6178696D756D206665B7
:10136000656472617465732028756E6974732F7378
:10137000293A0A00204500205A0020590020204D1B
:10138000393220580053746570732070657220756F
:101390006E69743A0A0020204D3230302044300A01
:1013A0000020204D323030204400204469736162B7
:1013B0006C65640A0046696C616D656E74207365C6
:1013C0007474696E67733A0020204D3134392043BC
:1013D000203B20556E69747320696E2043656C73E1
:1013E0006975730A002020473231202020203B20DD
:1013F000556E69747320696E206D6D0A0024F4D4F3
:101400003050C38E20C2A24017828B7011127A9185
:101410000D816CD90AA861E108C75866076151437C
:10142000061E4B5D05C145A7041A411104093D98EC
:1014300003713931034036DB0265339102D43054F5
:1014400002802E1D02632CEE01752AC501B028A072
:1014500001102781018F2564012B244B01E02234E8
:1014600001AC211F018D200D01801FFC00841EEDA9
:1014700000971DDF00B81CD200E61BC600201BBC75
:1014800000641AB200B219A8000A19A0006A1899DB
:1014900000D117910040178B00B516840031167EDD
:1014A00000B31579003A157300C7146F0058146A19
:1014B00000EE1366008813630025135E00C7125BFD
:1014C000006C12570015125400C111510070114FD9
:1014D0000021114B00D61049008D104700461044E2
:1014E0000002104200C00F4000800F3E00420F3C3F
:1014F00000060F3B00CB0E3800930E37005C0E3514
:1015000000270E3400F30D3200C10D3100900D3074
:1015100000600D2E00320D2D00050D2C00D90C2B76
:1015200000AE0C2900850C29005C0C2700350C2727
:10153000000E0C2600E80B2400C40B2400A00B2393
:10154000007D0B23005A0B2100390B2100180B20C2
:1015500000F80A1F00D90A1E00BB0A1E009D0A1DC2
:1015600000800A1D00630A1C00470A1B002C0A1B8E
:1015700000110A1A00F7091A00DD091900C4091937
:1015800000AB091900920917007B091800630917BD
:10159000004C09160036091600200916000A091524
:1015A00000F5081500E0081400CC081400B8081471
:1015B00000A4081400900813007D0812006B0813A3
:1015C00000580812004608120034081100230811C0
:1015D000001208110001081100F0071000E00710C8
:1015E00000D0071000C0071000B0070F00A10710BF
:1015F0000091070E0083070F0074070F0065070EA8
:101600000057070E0049070E003B070D002E070E7E
:101610000020070D0013070D0006070D00F9060C4A
:1016200000ED060D00E0060C00D4060C00C8060C08
:1016300000BC060C00B0060C00A4060B0099060CBA
:10164000008D060B0082060B0077060B006C060B64
:101650000061060A0057060B004C060A0042060A03
:101660000038060A002E060A0024060A001A060A96
:10167000001006090007060A00FD050900F4050927
:1016800000EB050900E2050900D9050900D00509AC
:1016900000C7050900BE050900B5050800AD05082D
:1016A00000A50509009C050800940508008C0508A4
:1016B00000840508007C050800740508006C050717
:1016C00000650508005D050700560508004E050782
:1016D00000470507004005080038050700310507E9
:1016E000002A050700230507001C0506001605074C
:1016F000000F0507000805060002050700FB0406A9
:1017000000F5040700EE040600E8040600E2040702
:1017100000DB040600D5040600CF040600C9040659
:1017200000C3040600BD040600B7040600B10405AA
:1017300000AC040600A6040600A00405009B0406F5
:101740000095040500900406008A04050085040540
:1017500000800406007A0405007504050070040585
:10176000006B04050066040500610405005C0405C7
:101770000057040500520405004D04050048040507
:1017800000430405003E0404003A04050035040546
:1017900000300404002C0405002704040023040581
:1017A000001E0404001A04040016040500110404B9
:1017B000000D0404000904050004040400000404EE
:1017C00000FC030400F8030400F4030400F0030425
:1017D00000EC030400E8030400E4030400E0030455
:1017E00000DC030400D8030400D4030400D0030485
:1017F00000CC030400C8030300C503030024F40461
:10180000D9201BC40C5C0E9804C4095F02650771E3
:1018100001F405F900FB04B30048048700C1036923
:10182000005803550003034500BE023A008402310C
:101830000053022A002902250004022000E4011CB2
:1018400000C8011900AF01170098011400840113AA
:1018500000710110006101100051010E0043010DE3
:101860000036010B002B010B0020010B00150109B4
:10187000000C01090003010800FB000800F3000848
:1018800000EB000700E4000600DE000600D80006BA
:1018900000D2000600CC000500C7000500C200050C
:1018A00000BD000400B9000400B5000400B100044C
:1018B00000AD000400A9000400A5000300A200037D
:1018C000009F0004009B00030098000300950002A5
:1018D0000093000300900003008D0002008B0003C2
:1018E00000880002008600020084000300810002DC
:1018F000007F0002007D0002007B000200790002F0
:1019000000770001007600020074000200720001FE
:1019100000710002006F0002006D0001006C000207
:10192000006A000100690002006700010066000112
:101930000065000100640002006200010061000116
:1019400000600001005F0002005D0001005C00011A
:10195000005B0001005A000100590001005800011D
:10196000005700010056000100550001005400011D
:10197000005300000053000100520001005100011B
:1019800000500001004F0001004E0000004E000119
:10199000004D0001004C0001004B0000004B000115
:1019A000004A000100490001004800000048000111
:1019B000004700010046000000460001004500000D
:1019C0000045000100440001004300000043000105
:1019D00000420000004200010041000000410001FF
:1019E00000400001003F0000003F0001003E0000F9
:1019F000003E0001003D0000003D0001003C0000F1
:101A0000003C0000003C0001003B0000003B0001E6
:101A1000003A0000003A00010039000000390001DE
:101A200000380000003800000038000100370000D6
:101A300000370001003600000036000000360001CB
:101A400000350000003500000035000100340000C2
:101A500000340000003400010033000000330000B7
:101A600000330001003200000032000000320001AB
:101A700000310000003100000031000100300000A2
:101A80000030000000300001002F0000002F000097
:101A9000002F0000002F0001002E0000002E00008B
:101AA000002E0001002D0000002D0000002D000080
:101AB000002D0001002C0000002C0000002C000074
:101AC000002C0001002B0000002B0000002B000068
:101AD000002B0001002A0000002A0000002A00005C
:101AE000002A000100290000002900000029000050
:101AF0000029000000290001002800000028000043
:101B00000028000000280000002800010027000035
:101B10000027000000270000002700000027000128
:101B2000002600000026000000260000002600001D
:101B3000002600010025000000250000002500000F
:101B40000025000000250000002500010024000001
:101B500000240000002400000024000000240001F4
:101B600000230000002300000023000000230000E9
:101B700000230000002300000023000100220000D9
:101B800000220000002200000022000000220000CD
:101B900000220001002100000021000000210000BF
:101BA00000210000002100000021000000210001B0
:101BB00000200000002000000020000000200000A5
:101BC0000020000000200000002000000020000194
:101BD000001F0000001F0000001F0000001F000089
:101BE000001F0000001F0000001F0001001E000079
:101BF000001E0000001E0000001E0000004D3834D2
:101C000020582059205A20450043616E6E6F742081
:101C10006F70656E207375626469722000656E7105
:101C200075657565696E672022006563686F3A00A7
:101C30002E0A006F70656E206661696C65642C20E9
:101C400046696C653A200057726974696E67207442
:101C50006F2066696C653A200020706F7369746943
:101C60006F6E206F7574206F662072616E67652ECF
:101C70000A003F50726F62652000206669727374BB
:101C80000A005A0059005800486F6D6520005275CF
:101C90006E6E696E6720696E204452592D52554E02
:101CA000206D6F64650A00473239204175746F20DA
:101CB000426564204C6576656C696E670A0028424F
:101CC0002961636B00284629726F6E7400285229BF
:101CD0006967687400284C29656674003F28562996
:101CE0006572626F7365206C6576656C2069732020
:101CF000696D706C61757369626C652028302D3474
:101D0000292E0A00426164205A2076616C75650AAA
:101D1000004E6F2062696C696E656172206772693E
:101D2000640A0020746F6F206C6F6E672065787492
:101D3000727573696F6E2070726576656E74656416
:101D40000A0020636F6C6420657874727573696F24
:101D50006E2070726576656E7465640A00627573D4
:101D6000793A2070617573656420666F7220696EC0
:101D70007075740A00627573793A207061757365C5
:101D80006420666F7220757365720A0062757379DC
:101D90003A2070726F63657373696E670A004B490E
:101DA0004C4C45442E20004B494C4C2063617573CC
:101DB0006564206279204B494C4C20627574746FC5
:101DC0006E2F70696E0A004B494C4C45442E200022
:101DD0004B494C4C206361757365642062792074B3
:101DE0006F6F206D75636820696E616374697665D5
:101DF0002074696D65202D2063757272656E742084
:101E0000636F6D6D616E643A20005072696E746527
:101E1000722068616C7465642E206B696C6C282973
:101E20002063616C6C6564210A000000B44300000B
:101E3000B443000000000000484200004842000097
:101E40008040000000005761726E696E673A20485A
:101E50006F6D696E672042756D7020446976697395
:101E60006F72203C20310A000202040000A04000F2
:101E700000A040000000400000B4430000B4430054
:101E800000CD430101FF202F002042403A002040B6
:101E90003A004732382058302059300020573A0055
:101EA000205A3A0020593A0020436F756E7420582A
:101EB0003A0020453A00205A3A0020593A00583A50
:101EC000000000000000000000000000000000B45E
:101ED000430000B4430000CD435072696E746572D4
:101EE0002073746F707065642064756520746F2052
:101EF0006572726F72732E2046697820746865204F
:101F00006572726F7220616E6420757365204D3941
:101F1000393920746F20726573746172742E2028B1
:101F200054656D7065726174757265206973207295
:101F3000657365742E20536574206974206166741E
:101F400065722072657374617274696E67290A0024
:101F500053544F502063616C6C656420626563610B
:101F6000757365206F6620424C546F7563682065F9
:101F700072726F72202D2072657374617274207793
:101F8000697468204D3939390A00473020463336A4
:101F90003030205831383020593138300042696CA7
:101FA000696E656172204C6576656C696E67204765
:101FB0007269643A0A0062696E004D313137204916
:101FC0004E56414C494420444154412E0047393239
:101FD000205A2573204525730062696E0053442002
:101FE00063617264206F6B0A006F70656E526F6F71
:101FF00074206661696C65640A00766F6C756D6546
:102000002E696E6974206661696C65640A005344C8
:1020100020696E6974206661696C0A004D32340073
:102020004D3233202573006175746F25692E67006A
:1020300057726974696E6720746F2066696C653ABF
:1020400020006F70656E206661696C65642C2046A7
:10205000696C653A20006F70656E206661696C6519
:10206000642C2046696C653A200046696C652073D3
:10207000656C65637465640A002053697A653A206B
:102080000046696C65206F70656E65643A20006F6C
:1020900070656E206661696C65642C2046696C65AC
:1020A0003A20002066696C653A20004E6F77200068
:1020B0002220706F73002220706172656E743A2264
:1020C00000535542524F5554494E452043414C4CC4
:1020D000207461726765743A22004B494C4C454448
:1020E0002E2000747279696E6720746F2063616CB2
:1020F0006C207375622D67636F64652066696C651B
:1021000073207769746820746F6F206D616E792019
:102110006C6576656C732E204D4158206C65766534
:102120006C2069733A004572726F723A006265649E
:102130000A002C2073797374656D2073746F70704E
:10214000656421204865617465725F49443A2000E6
:102150004572723A204D415854454D5020424544F5
:10216000004572723A204D415854454D50004D4142
:102170005854454D502074726967676572656400F4
:102180004572723A204D494E54454D5020424544C7
:10219000004572723A204D494E54454D50004D490C
:1021A0004E54454D502074726967676572656400CE
:1021B00048656174696E67206661696C6564004892
:1021C000656174696E67206661696C656400486565
:1021D0006174696E67206661696C65640048656159
:1021E00074696E67206661696C6564007C3C3E5E64
:1021F0002B3D3F2F5B5D3B2C2A225C0050726F62AF
:10220000696E67206661696C65640A00205A3A202D
:102210000020593A200042656420583A2000526557
:1022200073656E643A20006F6B0083E9CEEA112477
:102230001FBECFEFD1E2DEBFCDBF00E00CBF15E087
:10224000A0E0B2E0EAE3F8EF01E00BBF02C00790C4
:102250000D92AE36B107D9F72CE1AEE6B5E001C07C
:102260001D92A736B207E1F711E1C6E1D1E100E026
:1022700006C021970109802FFE010E9456FBC5313F
:10228000D10780E00807A9F70E9443E00C940CFCFA
:102290000C9400006F927F928F929F92AF92BF92A8
:1022A000CF92DF92EF92FF920F931F93CF93DF9322
:1022B000CDB7DEB7E2970FB6F894DEBF0FBECDBF45
:1022C00040916D1450916E1460916F147091701460
:1022D00020E632E000E010E0F90181919191A191B6
:1022E000B1919F010097A105B10511F40C94CC2781
:1022F000481759076A077B0761F40B31110510F085
:102300000C94CC27F8018827EE58FF4F8F4F0C9480
:1023100056FB0F5F1F4FE0CF80917514909176149C
:102320008130910599F41092580281E080932B1B23
:102330008FEF809388150E9491D381E09AE5909366
:10234000C6148093C51482E090E0CEC68230910519
:1023500009F0C7C081E0809358021092441C0E948B
:102360000060EE24E394F12CF092C614E092C514C0
:1023700005E00093B91412E81093BC1480E092E1D8
:10238000A0E0B0E08093BD149093BE14A093BF145E
:10239000B093C0140E94BFA31092C6141092C5142B
:1023A0000093B9141093BC148EE090E1A0E0B0E06B
:1023B0008093BD149093BE14A093BF14B093C01427
:1023C0000E94BFA31092C6141092C5140093B914B2
:1023D0001093BC148FE090E1A0E0B0E08093BD14B6
:1023E0009093BE14A093BF14B093C0140E94BFA3D7
:1023F0001092C6141092C5140093B9141093BC1413
:1024000086E190E1A0E0B0E08093BD149093BE140B
:10241000A093BF14B093C0140E94BFA362E070E009
:1024200080E090E00E945E5A1092C6141092C5148B
:102430000093B9141093BC1480E190E1A0E0B0E0E7
:102440008093BD149093BE14A093BF14B093C01496
:102450000E94BFA31092C6141092C5140093B91421
:102460001093BC1482E190E1A0E0B0E08093BD1431
:102470009093BE14A093BF14B093C0140E94BFA346
:102480001092B0111092AF111092B5111092B611B6
:102490001092B7111092B8111092B9111092BA118E
:1024A0001092BB111092BC111092B1111092B21186
:1024B0001092B3111092B41181E09AE59093C61472
:1024C0008093C514F092C814E092C71487E08093FB
:1024D000B9141093BC1484E890E0A0E0B0E00C9430
:1024E0002E278330910531F481E0809358021092B9
:1024F000441CF2C5049711F00C94CC27109258029A
:102500000C94CC27809175149091761481309105AC
:1025100009F045C01092580280914C1C90914D1CBE
:10252000892B21F481E08093060202C010920602FA
:1025300080910602882329F01092C6141092C514C7
:1025400006C081E090E09093C6148093C51485E0A6
:102550008093B91482E88093BC148EE190E1A0E0EE
:10256000B0E08093BD149093BE14A093BF14B093B9
:10257000C0140E94BFA38091590290915A02909377
:10258000C6148093C51485E08093B91482E88093C3
:10259000BC1486E090E1A0E0B0E00C942E278230DD
:1025A000910509F07FC081E0809358028091491C19
:1025B000833049F481E09AE59093C6148093C51462
:1025C0008AE090E013C0843049F481E09AE590936A
:1025D000C6148093C5148CE090E008C081E09AE5B1
:1025E0009093C6148093C5148BE090E09093C81428
:1025F0008093C71487E08093B91482E88093BC1459
:1026000084E890E0A0E0B0E08093BD149093BE1405
:10261000A093BF14B093C0140E94BFA3C090A7059D
:10262000D090A805E090A905F090AA05A701960111
:102630006091AB057091AC058091AD059091AE05B0
:102640000E94B8F1882311F40C94CC27C092AB05FA
:10265000D092AC05E092AD05F092AE0520E030E0FE
:1026600048EC52E4C701B6010E941DF20E949AF99B
:102670007093C6146093C51485E08093B91482E802
:102680008093BC1486E290E1A0E0B0E08093BD149A
:102690009093BE14A093BF14B093C0140E94BFA324
:1026A0000C949A248330910509F051C08091060260
:1026B000882341F10FEF10E010934D1C00934C1C48
:1026C00081E090E09093C6148093C51485E08093D8
:1026D000B91482E88093BC148EE190E1A0E0B0E0F0
:1026E0008093BD149093BE14A093BF14B093C014F4
:1026F0000E94BFA310934B1C00934A1C1092060229
:102700000C94CC2710924D1C10924C1C1092C614A5
:102710001092C51485E08093B91482E88093BC14AC
:102720008EE190E1A0E0B0E08093BD149093BE14E0
:10273000A093BF14B093C0140E94BFA310924B1C6F
:1027400010924A1C81E0809306020C94CC270497D7
:1027500011F00C94CC2780910502882309F44CC019
:102760001092C6141092C51405E00093B91412E833
:102770001093BC148FE190E1A0E0B0E08093BD1411
:102780009093BE14A093BF14B093C0140E94BFA333
:102790008091A5059091A6050097D1F09093A4058E
:1027A0008093A3059093C6148093C5140093B91425
:1027B0001093BC148AE390E1A0E0B0E08093BD14D4
:1027C0009093BE14A093BF14B093C0140E94BFA3F3
:1027D00010920502109204028091AC189091AD18ED
:1027E0000A969093C6148093C51485E08093B9141B
:1027F00082E88093BC1433C081E090E09093C614CB
:102800008093C51405E00093B91412E81093BC142A
:102810008FE190E1A0E0B0E08093BD149093BE14EE
:10282000A093BF14B093C0140E94BFA38091A305CE
:102830009091A4059093A6058093A50581E08093CF
:102840000502809304028091AC189091AD1890938A
:10285000C6148093C5140093B9141093BC1488E176
:1028600090E1A0E0B0E08093BD149093BE14A093DB
:10287000BF14B093C0140E94BFA36091050280E60C
:1028800090E00E94DBF70C94CC2780917514909116
:10289000761490935A028093590271CE2091A2052A
:1028A0008091751490917614213069F484309105EB
:1028B00009F055C081E09AE59093C6148093C51441
:1028C0008CE090E011C421114AC08430910509F0D8
:1028D00046C060919B0570919C0563507109072E5D
:1028E000000C880B990B0E94BEF19B01AC0160911A
:1028F0009D0570919E0580919F059091A0050E9475
:102900007CFA18161CF56091A3057091A40562501D
:102910007109072E000C880B990B0E94BEF19B01D8
:10292000AC016091970570919805809199059091FF
:102930009A050E947CFA18164CF481E09AE590936F
:10294000C6148093C5148BE090E0CEC381E09AE575
:102950009093C6148093C5148AE090E0C5C3833079
:10296000910509F057C081E09AE59093C6148093D1
:10297000C5148DE290E09093C8148093C71487E04B
:102980008093B91412E81093BC1484E890E0A0E09E
:10299000B0E08093BD149093BE14A093BF14B09385
:1029A000C0140E94BFA31092C6141092C51405E073
:1029B0000093B9141093BC1480E190E1A0E0B0E062
:1029C0008093BD149093BE14A093BF14B093C01411
:1029D0000E94BFA31092C6141092C5140093B9149C
:1029E0001093BC1482E190E1A0E0B0E08093BD14AC
:1029F0009093BE14A093BF14B093C0140E94BFA3C1
:102A0000109296051092950510922C1B0E94A7DE3D
:102A10000C94CC278230910549F481E09AE590939B
:102A2000C6148093C5148DE090E05EC3019711F049
:102A30000C94CC2798CF80917514909176148130A6
:102A4000910549F481E09AE59093C6148093C514EA
:102A500084E190E049C38230910509F076C081E0BD
:102A60009AE59093C6148093C5148DE290E09093FC
:102A7000C8148093C71487E08093B91482E88093C8
:102A8000BC1484E890E0A0E0B0E08093BD14909383
:102A9000BE14A093BF14B093C0140E94BFA381E0E2
:102AA0008093501C8091591C90915A1CA0915B1CE2
:102AB000B0915C1C8093910590939205A09393052F
:102AC000B093940520E030E040E251E460915D1C59
:102AD00070915E1C80915F1C9091601C0E9455F863
:102AE00060938D0570938E0580938F05909390056C
:102AF0001092BF110E9482C480918B0590918C0529
:102B0000892B41F480919B0590919C0590938C05B5
:102B100080938B058091A5059091A605892B41F4A2
:102B20008091A3059091A4059093A6058093A50597
:102B300081E08093A20584E08093491C1092960561
:102B40001092950581E993E058C2039711F00C9417
:102B5000CC27F3CE80917514909176148130910535
:102B600009F0E7C081E09AE5649907C09093C61424
:102B70008093C51488E090E0B7C29093C614809308
:102B8000C5148DE290E09093C8148093C71487E039
:102B90008093B91482E88093BC1484E890E0A0E0AC
:102BA000B0E08093BD149093BE14A093BF14B09373
:102BB000C0140E94BFA36E01FFE1CF0ED11C60E1E3
:102BC000F62ED601EF2D1D92EA95E9F76091910559
:102BD000709192058091930590919405860122E071
:102BE00043E00E9404EDCE0101965C01DC011D92E0
:102BF000FA94E9F760918D0570918E0580918F05AB
:102C000090919005850122E043E00E9404ED74EC70
:102C1000E72E75E0F72E1EE1F701212F11922A957C
:102C2000E9F78091A6058F938091A5058F9388E899
:102C300093E09F938F93FF92EF920E9489F1C701D7
:102C40000E947FA5D701E12F1D92EA95E9F78091B7
:102C50008C058F9380918B058F938FE793E09F93E3
:102C60008F93FF92EF920E9489F1C7010E947FA586
:102C7000D7011D921A95E9F7DF92CF9288E793E08A
:102C80009F938F93FF92EF920E9489F1C7010E9458
:102C90007FA5BF92AF9280E793E09F938F93FF92BF
:102CA000EF920E9489F1C7010E947FA50FB6F894A8
:102CB000DEBF0FBECDBF8091C011882319F081E027
:102CC0008093BF110E949CC48091AC189091AD1864
:102CD0000A969093C6148093C51485E08093B91426
:102CE00012E81093BC1484E190E1A0E0B0E080937E
:102CF000BD149093BE14A093BF14B093C0140E944F
:102D0000BFA38AE08093AB181092A205109296059B
:102D10001092950583E08093491C81E080932C1BE1
:102D200081E09AE59093C6148093C5148BE090E0FF
:102D300032C4029711F00C94CC2780918815F2E1EF
:102D40008F02C00111248D5B984E9F938F9389E66B
:102D500093E09F938F938E010F5F1F4F1F930F93ED
:102D60000E9489F10F900F900F900F900F900F908D
:102D70007E0125E0E20EF11CF7018081882349F0F5
:102D8000082E000C990B0E9468FBD7018D937D01E2
:102D9000F3CF809188158093C30584E1EFEAF5E0D5
:102DA000DF011D928A95E9F7B801CF010E94B8FBB7
:102DB000649902C00C942F26C8010E947FA585E665
:102DC00093E09093BA1A8093B91A0E945A7DC12C4D
:102DD00050E2D52EE12CF12C05E012E81092C61439
:102DE0001092C5140093B9141093BC14C092BD1472
:102DF000D092BE14E092BF14F092C0140E94BFA300
:102E0000BFEFCB1ADB0AEB0AFB0AEAE0CE16E0E2E0
:102E1000DE06E104F10411F70C9469262091751483
:102E200030917614B90180E090E037FF09C00E942C
:102E3000BCF120E030E040E857E40E9455F802C0C1
:102E40000E94BCF120E030E048EC52E40E9432F9EC
:102E50006093A7057093A8058093A9059093AA0590
:102E6000C090A705D090A805E090A905F090AA050C
:102E700020E030E040EA51ECC701B6010E947CFA44
:102E800087FF02C00C94CC2720E030E040EA51E4F8
:102E9000C701B6010E94B8F1181614F40C94CC279F
:102EA0002091AB053091AC054091AD055091AE0538
:102EB000C701B6010E9455F820E030E040EA52E434
:102EC0000E941DF20E949AF920917C05222311F4A0
:102ED0000C94CC272091720530917305620F731FFB
:102EE00070937305609372050C94CC2780917514D0
:102EF00090917614009739F481E0809358021092F3
:102F0000441C0C94CC279C012150310922303105FE
:102F100010F40C94CC278330910509F045C081E072
:102F20009AE59093C6148093C5148FE090E0909337
:102F3000C8148093C71487E08093B91482E8809303
:102F4000BC1484E890E0A0E0B0E08093BD149093BE
:102F5000BE14A093BF14B093C0140E94BFA380916D
:102F60004C1C90914D1C892B21F481E0809306022A
:102F700002C010920602209106028091AC18909136
:102F8000AD18211101C00A969093C6148093C51400
:102F900085E08093B91482E88093BC1480E990E1C5
:102FA000A0E0B0E00C942E278430910509F04BC0CE
:102FB000209106028091AC189091AD18222329F13E
:102FC000109206020A969093C6148093C51485E069
:102FD0008093B91482E88093BC1480E990E1A0E06A
:102FE000B0E08093BD149093BE14A093BF14B0932F
:102FF000C0140E94BFA38BE593E09093BA1A80930C
:10300000B91A0E945A7D0C94CC2721E02093060225
:103010009093C6148093C51485E08093B91482E818
:103020008093BC1480E990E1A0E0B0E08093BD14EF
:103030009093BE14A093BF14B093C0140E94BFA37A
:1030400086E593E0DACF8530910581F489EB90E055
:103050000E949A4D4DE2E42EF12CF092A405E092EC
:10306000A3050E94845E89EB90E012C08630910532
:1030700081F580EF90E00E949A4D3EE6E32EF12C20
:10308000F092A405E092A3050E94845E80EF90E098
:103090009093C6148093C51405E00093B91412E808
:1030A0001093BC1484E390E1A0E0B0E08093BD14E1
:1030B0009093BE14A093BF14B093C0140E94BFA3FA
:1030C000F092C614E092C5140093B9141093BC1486
:1030D000DFC08930910599F481E09AE59093C61498
:1030E0008093C5148FE090E09093C8148093C71428
:1030F00087E08093B91482E88093BC14ECC98B30CC
:10310000910511F40C94CC278C30910509F08BC0FB
:103110008FEF90E090934D1C80934C1C90934B1C30
:1031200080934A1C109206020E94185F8091AC188E
:103130009091AD18805B9F4F9093C6148093C514F7
:1031400015E01093B91402E80093BC1484E190E1F7
:10315000A0E0B0E08093BD149093BE14A093BF1480
:10316000B093C0140E94BFA380E58093AB1881E0A8
:103170009AE59093C6148093C5148FE090E09093E5
:10318000C8148093C71487E08093B9140093BC14CB
:1031900084E890E0A0E0B0E08093BD149093BE146A
:1031A000A093BF14B093C0140E94BFA31092C61482
:1031B0001092C5141093B9140093BC1484E390E1E9
:1031C000A0E0B0E08093BD149093BE14A093BF1410
:1031D000B093C0140E94BFA361E070E080E090E073
:1031E0000E945E5A1092C6141092C5141093B9141E
:1031F0000093BC148AE390E1A0E0B0E08093BD149A
:103200009093BE14A093BF14B093C0140E94BFA3A8
:1032100061E070E080E090E00E945E5A82E080937E
:10322000491C0C94CC270D9711F00C94CC2754CF4B
:103230008091751490917614009709F44DCF8130E8
:103240009105A1F410929C0510929B051092C61452
:103250001092C51485E08093B91482E88093BC1461
:1032600084E390E1A0E0B0E00C942E27029711F0E7
:103270000C94CC271092A4051092A3051092C614AA
:103280001092C51485E08093B91482E88093BC1431
:103290008AE390E1A0E0B0E00C942E2780917514B1
:1032A0009091761490939C0580939B050E949A4D73
:1032B0000C94CC2780917514909176148E379105DB
:1032C00014F08DE790E09093A4058093A3050E94ED
:1032D000845E0C94CC27809175149091761400979D
:1032E00009F40ACE8130910509F03FC01092C6144E
:1032F0001092C51485E08093B91412E81093BC14A1
:1033000080E092E1A0E0B0E08093BD149093BE1401
:10331000A093BF14B093C0140E94BFA386E0809313
:10332000501C81E08093471C8093580210928605C0
:10333000109296051092950582E593E09093BA1A43
:103340008093B91A0E945A7D85E493E09093BA1A4B
:103350008093B91A0E945A7D81E09AE59093C61431
:103360008093C51480E290E016C18230910509F087
:103370008AC081E0809358021092441C88E0EEE7F6
:10338000F5E0DF011D928A95E9F780E090E0A0E288
:10339000B1E480937E0590937F05A0938005B09360
:1033A000810584E690E09093C6148093C51415E0DF
:1033B0001093B91402E80093BC1484E590E1A0E0F6
:1033C000B0E08093BD149093BE14A093BF14B0934B
:1033D000C0140E94BFA360919D0570919E058091CD
:1033E0009F059091A0050E949AF97093C61460936E
:1033F000C5141093B9140093BC1486E390E1A0E0C7
:10340000B0E08093BD149093BE14A093BF14B0930A
:10341000C0140E94BFA380919B0590919C050E94BF
:103420009A4D80919B0590919C059093C614809332
:10343000C5141093B9140093BC1484E390E1A0E088
:10344000B0E08093BD149093BE14A093BF14B093CA
:10345000C0140E94BFA362E070E080E090E00E9490
:103460005E5A81E09AE59093C6148093C51487E173
:1034700090E09093C8148093C71487E08093B914A8
:103480000093BC1428C88330910509F08AC01092BB
:103490007D0520E030E040E251E46091511C7091E4
:1034A000521C8091531C9091541C0E941DF20E944A
:1034B0009AF97093C6146093C51405E00093B9148B
:1034C00012E81093BC1488E490E1A0E0B0E080938F
:1034D000BD149093BE14A093BF14B093C0140E9467
:1034E000BFA320E030E040E251E46091551C7091B0
:1034F000561C8091571C9091581C0E941DF20E94EE
:103500009AF97093C6146093C5140093B91410937C
:10351000BC148AE490E1A0E0B0E08093BD149093E5
:10352000BE14A093BF14B093C0140E94BFA320E0A8
:1035300030E040E251E46091591C70915A1C809136
:103540005B1C90915C1C0E941DF20E949AF9709382
:10355000C6146093C5140093B9141093BC148CE482
:1035600090E1A0E0B0E08093BD149093BE14A093CE
:10357000BF14B093C0140E94BFA362E070E080E06B
:1035800090E00E945E5A81E09AE59093C614809381
:10359000C5148DE190E09093C8148093C7140C94E7
:1035A00066128430910549F481E09AE59093C6143F
:1035B0008093C51482E290E097CD85309105D1F4D7
:1035C0008091AC189091AD184EE750E160E070E04A
:1035D000892B19F08EE593E002C08FE693E00E94FC
:1035E00077C281E09AE59093C6148093C51483E274
:1035F00090E07ACD069711F00C94CC2781E493E00B
:103600009093BA1A8093B91A0E945A7D81E090E093
:103610009093C6148093C514ACC280917514909198
:103620007614019709F096C080EA9FE09093960582
:103630008093950510925802C090A705D090A805D8
:10364000E090A905F090AA05A70196016091AB054D
:103650007091AC058091AD059091AE050E94B8F1D6
:10366000882309F457C0C092AB05D092AC05E09214
:10367000AD05F092AE0520E030E0A901C701B6012A
:103680000E947CFA181654F420E030E040EA50E43E
:10369000C701B6010E94B8F187FD0EC020E030E0FE
:1036A000A901C701B6010E94B8F187FF0AC02FE641
:1036B00032E143E85AEB08C02FE632E143E85AE32F
:1036C00003C020E030E0A901C701B6010E9456F80E
:1036D00020E030E048EC52E40E941DF20E949AF98A
:1036E0007093C6146093C51485E08093B91482E882
:1036F0008093BC1486E290E1A0E0B0E08093BD141A
:103700009093BE14A093BF14B093C0140E94BFA3A3
:103710000E94486F81E09AE59093C6148093C51487
:1037200085E190E09093C8148093C71487E080935C
:10373000B91482E88093BC1484E890E0A0E0B0E083
:103740008093BD149093BE14A093BF14B093C01483
:103750000E94BFA38091751490917614029711F086
:103760000C94CC2781E09AE59093C6148093C514FD
:1037700086E190E0B9CC80917514909176148130F7
:103780009105F1F40E94E0CF86E08093501C1092E6
:10379000580281E08093471C80917A05882321F0AC
:1037A00080917B05811103C08DE393E002C086E325
:1037B00093E09093BA1A8093B91A0E945A7DD5C1AA
:1037C0008230910571F52DEC3CEC4CEC5DE36091A1
:1037D000A7057091A8058091A9059091AA050E945E
:1037E00056F86B017C0120E030E040EA51EC0E9489
:1037F0007CFA87FD52C020E030E040EA51E4C70186
:10380000B6010E94B8F118160CF447C080917C05EF
:103810008823D9F18091720590917305805B9F4F49
:1038200030C08330910509F084C02DEC3CEC4CECA9
:103830005DE36091A7057091A8058091A90590911D
:10384000AA050E9455F86B017C0120E030E040EAB7
:1038500051EC0E947CFA87FD20C020E030E040EA75
:1038600051E4C701B6010E94B8F11816B4F0809176
:103870007C05882351F080917205909173058055E5
:1038800091099093730580937205C092A705D09219
:10389000A805E092A905F092AA05C090A705D090CE
:1038A000A805E090A905F090AA0520E030E0A90164
:1038B000C701B6010E947CFA181654F420E030E0EB
:1038C00040EA50E4C701B6010E94B8F187FD0EC07E
:1038D00020E030E0A901C701B6010E94B8F187FFDE
:1038E0000AC02FE632E143E85AEB08C02FE632E186
:1038F00043E85AE303C020E030E0A901C701B60164
:103900000E9456F820E030E048EC52E40E941DF29C
:103910000E949AF97093C6146093C51485E0809351
:10392000B91482E88093BC1486E290E1A0E0B0E094
:103930002CC084309105A1F584E08093501C82E373
:1039400093E09093BA1A8093B91A0E945A7D8EE23E
:1039500093E09093BA1A8093B91A0E945A7D81E03D
:103960009AE59093C6148093C5148CE190E09093EF
:10397000C8148093C71487E08093B91482E88093B9
:10398000BC1484E890E0A0E0B0E08093BD14909374
:10399000BE14A093BF14B093C0140E94BFA3E5C08F
:1039A0008530910509F047C083E08093501C81E089
:1039B00090E09093C6148093C51485E08093B91469
:1039C00012E81093BC148DE890E1A0E0B0E0809381
:1039D000BD149093BE14A093BF14B093C0140E9462
:1039E000BFA381E09AE59093C6148093C5148BE23F
:1039F00090E09093C8148093C71487E08093B91423
:103A00001093BC1484E890E0A0E0B0E08093BD1473
:103A10009093BE14A093BF14B093C0140E94BFA390
:103A20008AE293E09093BA1A8093B91A0E945A7D61
:103A300086E293E0BECE86309105A1F484E08093C7
:103A4000501C80E090E0A0E4B0E489839A83AB83CB
:103A5000BC83CE0101960E9491DE80E090E0A4E359
:103A6000B3E44CC087309105A1F484E08093501CEE
:103A700080E090E0A0E4B0E489839A83AB83BC83C8
:103A8000CE0101960E9491DE80E090E0A8E4B2E4CD
:103A900035C088309105E1F484E08093501C80E0CB
:103AA00090E0A0E4B0E489839A83AB83BC83CE0129
:103AB00001960E9491DE80E090E0A8E4B2E48F8F4E
:103AC00098A3A9A3BAA380E090E0A6E9B3E438C024
:103AD00089309105C1F484E08093501C80E090E02F
:103AE000A0E4B0E489839A83AB83BC83CE010196C2
:103AF0000E9491DE80E090E0A6E9B3E48F8F98A366
:103B0000A9A3BAA31DC00A9781F584E08093501C35
:103B100080E090E0A0E4B0E489839A83AB83BC8327
:103B2000CE0101960E9491DE80E090E0A6E9B3E428
:103B30008F8F98A3A9A3BAA380E090E0A8E4B2E491
:103B400089839A83AB83BC83BE01615E7F4FCE01C4
:103B500001960E9479DE19821A821B821C82CE0194
:103B600001960E9491DE1092501C1092C614109281
:103B7000C51485E08093B91482E88093BC1445C1D4
:103B80000E94EE5681110C94CC27609175147091AF
:103B9000761480E090E00E94BCF120E030E040E24A
:103BA00051E40E9432F96B017C0120E030E0A90170
:103BB0000E94B8F187FF09C01092511C1092521C4C
:103BC0001092531C1092541C1FC020E030E044EBB4
:103BD00053E4C701B6010E947CFA18164CF0C0925B
:103BE000511CD092521CE092531CF092541C0CC0F9
:103BF00080E090E0A4EBB3E48093511C9093521CBE
:103C0000A093531CB093541C80E090E00E94A14DFF
:103C100020E030E040E251E46091511C7091521C70
:103C20008091531C9091541C0E941DF20E949AF99D
:103C30007093C6146093C51405E00093B91412E89C
:103C40001093BC1488E490E1A0E0B0E0CCC00E94E6
:103C5000EE5681110C94CC276091751470917614F6
:103C600080E090E00E94BCF120E030E040E251E4CE
:103C70000E9432F96B017C0120E030E0A9010E9432
:103C8000B8F187FF09C01092551C1092561C109273
:103C9000571C1092581C1FC020E030E044EB53E446
:103CA000C701B6010E947CFA18164CF0C092551C50
:103CB000D092561CE092571CF092581C0CC080E029
:103CC00090E0A4EBB3E48093551C9093561CA09312
:103CD000571CB093581C81E090E00E94A14D20E059
:103CE00030E040E251E46091551C7091561C809187
:103CF000571C9091581C0E941DF20E949AF97093D3
:103D0000C6146093C51405E00093B91412E810932B
:103D1000BC148AE490E1A0E0B0E065C00E94EE56D9
:103D2000811179C0609175147091761480E090E0F3
:103D30000E94BCF120E030E040E251E40E9432F900
:103D40006B017C0120E030E0A9010E94B8F187FFFF
:103D500009C01092591C10925A1C10925B1C1092B0
:103D60005C1C1FC020E030E04DEC53E4C701B601FD
:103D70000E947CFA18164CF0C092591CD0925A1C22
:103D8000E0925B1CF0925C1C0CC080E090E0ADEC1B
:103D9000B3E48093591C90935A1CA0935B1CB0937E
:103DA0005C1C82E090E00E94A14D20E030E040E207
:103DB00051E46091591C70915A1C80915B1C909148
:103DC0005C1C0E941DF20E949AF97093C6146093C5
:103DD000C51405E00093B91412E81093BC148CE4E8
:103DE00090E1A0E0B0E08093BD149093BE14A09346
:103DF000BF14B093C0140E94BFA31092C6141092B7
:103E0000C5140093B9141093BC1480E092E1A0E0B3
:103E1000B0E00C942E2720E030E040E251E46091C5
:103E2000591C70915A1C80915B1C90915C1C0E94E3
:103E30001DF20E949AF97093C6146093C51485E030
:103E40008093B91482E88093BC148CE490E1A0E0E4
:103E5000B0E00C942E278091751490917614009701
:103E600059F410927D0581E09AE59093C6148093F1
:103E7000C5148DE190E038C98130910561F481E08D
:103E800080937D0581E09AE59093C6148093C514D4
:103E90008EE190E029C98230910561F482E080933F
:103EA0007D0581E09AE59093C6148093C5148FE157
:103EB00090E01AC9039711F00C94CC2784E080930A
:103EC000501C82E293E09093BA1A8093B91A0E9430
:103ED0005A7D81E08093471C80935802109286059A
:103EE000109296051092950581E09AE59093C6147C
:103EF0008093C51480E290E09093C8148093C71417
:103F000087E08093B91412E81093BC1484E890E021
:103F1000A0E0B0E08093BD149093BE14A093BF14B2
:103F2000B093C0140E94BFA31092C6141092C5147F
:103F300005E00093B9141093BC14C12C22E1D22ED9
:103F4000E12CF12CC092BD14D092BE14E092BF14AB
:103F5000F092C0140E94BFA320E030E040E251E4A0
:103F60006091511C7091521C8091531C9091541C73
:103F70000E941DF20E949AF97093C6146093C514B2
:103F80000093B9141093BC1488E490E1A0E0B0E071
:103F90008093BD149093BE14A093BF14B093C0142B
:103FA0000E94BFA320E030E040E251E46091551C44
:103FB0007091561C8091571C9091581C0E941DF2C4
:103FC0000E949AF97093C6146093C5140093B914B3
:103FD0001093BC148AE490E1A0E0B0E08093BD149B
:103FE0009093BE14A093BF14B093C0140E94BFA3BB
:103FF00020E030E040E251E46091591C70915A1C7D
:1040000080915B1C90915C1C0E941DF20E949AF9A9
:104010007093C6146093C5140093B9141093BC1424
:104020008CE490E1A0E0B0E08093BD149093BE14C6
:10403000A093BF14B093C0140E94BFA361E070E0CE
:1040400080E090E00E945E5A1092C6141092C5144F
:104050000093B9141093BC14C092BD14D092BE1436
:10406000E092BF14F092C01401C780917514909132
:1040700076146AE070E00E942FFB80E090E00E94DE
:10408000BCF160937E0570937F05809380059093CB
:10409000810520E030E040E251E40E941DF20E94E0
:1040A0009AF97093C6146093C51485E08093B9148F
:1040B00082E88093BC1484E590E1A0E0B0E0CEC635
:1040C000649909C081E09AE59093C6148093C51461
:1040D00086E290E009C88091751490917614813041
:1040E000910509F060C08091790580937805109260
:1040F000790520917E0530917F0540918005509192
:10410000810560915D1C70915E1C80915F1C909197
:10411000601C0E9455F860935D1C70935E1C809338
:104120005F1C9093601C80917705811158C020E03E
:1041300030E04EE353E460919D0570919E058091BF
:104140009F059091A0050E94B8F187FF48C081E0CB
:104150008093770583EC90E09093C6148093C51408
:1041600085E08093B91412E81093BC1480E290E1CA
:10417000A0E0B0E08093BD149093BE14A093BF1450
:10418000B093C0140E94BFA365E070E080E090E0AF
:104190000E945E5A81E09AE59093C6148093C514FC
:1041A00088E190E0D6C182309105E1F580917905F2
:1041B000809378051092790520917E0530917F05D6
:1041C000409180055091810560915D1C70915E1C4D
:1041D00080915F1C9091601C0E9456F89CCF83E0F8
:1041E00090E00E94A14D20E030E040E251E4609177
:1041F0007E0570917F0580918005909181050E94D8
:104200001DF20E949AF97093C6146093C51485E05C
:104210008093B91482E88093BC1484E590E1A0E017
:10422000B0E078C083309105D1F480917905809316
:10423000780581E08093790520918205309183058E
:10424000409184055091850560915D1C70915E1CC4
:1042500080915F1C9091601C0E9455F81DC08430B5
:10426000910509F064C0809179058093780581E01B
:1042700080937905209182053091830540918405D2
:104280005091850560915D1C70915E1C80915F1C52
:104290009091601C0E9456F860935D1C70935E1CA8
:1042A00080935F1C9093601C80917705811110C0F2
:1042B00020E030E04EE353E460919D0570919E054F
:1042C00080919F059091A0050E94B8F187FD3FCF96
:1042D00083E090E00E94A14D20E030E040E251E414
:1042E0006091820570918305809184059091850588
:1042F0000E941DF20E949AF97093C6146093C5142F
:1043000085E08093B91482E88093BC1488E590E13D
:10431000A0E0B0E08093BD149093BE14A093BF14AE
:10432000B093C0140E94BFA30E94E0CF28C1853083
:10433000910509F0ADC000919B0510919C05B80155
:10434000012E000C880B990B0E94BEF120E030E09A
:1043500043E453E40E947CFA87FF02C003EC10E0C0
:1043600010939C0500939B0580909D0590909E0561
:10437000A0909F05B090A00520E030E048EC52E40A
:10438000C501B4010E941DF26B017C01B801012E30
:10439000000C880B990B0E94BEF19B01AC01C70178
:1043A000B6010E9432F90E949FF9AB016436710593
:1043B00010F044E650E05093C6144093C51485E0D5
:1043C000E82EE092B91492E8F92EF092BC1484E23F
:1043D00090E1A0E0B0E08093BD149093BE14A09350
:1043E000BF14B093C0140E94BFA3C501B4010E94C2
:1043F0009AF97093C6146093C514E092B914F092C0
:10440000BC1486E390E1A0E0B0E08093BD149093EB
:10441000BE14A093BF14B093C0140E94BFA3C801E0
:104420000E949A4D80919B0590919C059093C61493
:104430008093C514E092B914F092BC1484E390E127
:10444000A0E0B0E08093BD149093BE14A093BF147D
:10445000B093C0140E94BFA381E08093770565E00C
:1044600070E080E090E00E945E5A81E09AE59093CF
:10447000C6148093C5148AE190E09093C814809389
:10448000C71487E08093B914F092BC140C946B129B
:104490008630910559F41092770581E09AE5909362
:1044A000C6148093C51487E190E00BC08730910556
:1044B00009F581E09AE59093C6148093C5148BE1C9
:1044C00090E09093C8148093C71487E08093B91448
:1044D00082E88093BC1484E890E0A0E0B0E0809390
:1044E000BD149093BE14A093BF14B093C0140E9447
:1044F000BFA345C088309105B1F51092770561E002
:1045000070E080E090E00E945E5A80E090E00E94BF
:104510009A4D1092C6141092C51485E08093B91478
:1045200012E81093BC1484E390E1A0E0B0E0809323
:10453000BD149093BE14A093BF14B093C0140E94F6
:10454000BFA381E09AE59093C6148093C51487E1D8
:1045500090E09093C8148093C71487E08093B914B7
:104560001093BC14B8CF099751F481E09AE5909369
:10457000C6148093C5148AE190E00C94741883E00B
:1045800090E00E94A14D20E030E040E251E46091D3
:104590007E0570917F0580918005909181050E9434
:1045A0001DF20E949AF97093C6146093C51485E0B9
:1045B0008093B91482E88093BC1484E590E1A0E074
:1045C000B0E08093BD149093BE14A093BF14B09339
:1045D000C0140E94BFA38091780580937905DCC444
:1045E0008091751490917614009729F0019790931B
:1045F000AD188093AC1802EEC02E00E1D02EE12C55
:10460000F12C05E012E81092C6141092C514009324
:10461000B9141093BC14C092BD14D092BE14E09291
:10462000BF14F092C0140E94BFA3BFEFCB1ADB0AE5
:10463000EB0AFB0AEBEECE16E0E1DE06E104F10444
:1046400011F78091AC189091AD188E519F4E092EA4
:10465000000CAA0BBB0B21E030E03093C614209372
:10466000C51425E02093B91422E82093BC1480934C
:10467000BD149093BE14A093BF14B093C0140E94B5
:10468000BFA30E94454356C1809175149091761442
:104690008130910529F4649B15CD649904C07CC4D4
:1046A000029709F079C481E09AE59093C61480934B
:1046B000C51487E190E00C947418E0907514F090A4
:1046C0007614F1E0EF16F10409F0AAC080914E1CB7
:1046D00090914F1C181619060CF05EC48091300E94
:1046E0009091310E90935A028093590280912F0E2F
:1046F0008F9380912E0E8F9389E193E09F938F93F8
:104700008E010F5F1F4F1F930F930E9489F1C80105
:104710000E947FA580912D0E8F9380912C0E8F93F8
:1047200080E193E09F938F931F930F930E9489F1F1
:10473000C8010E947FA586E093E09093BA1A809307
:10474000B91A0E945A7DF0927605E09275058FEFB6
:1047500090E090934D1C80934C1C90934B1C809345
:104760004A1C109206021092A20581E08093481C18
:1047700093E09093491C809374058093441C80932C
:10478000580280932C1B109296051092950510925A
:104790008805109287058091AC189091AD180A9603
:1047A0009093C6148093C51405E00093B91412E8E1
:1047B0001093BC1484E190E1A0E0B0E08093BD14BC
:1047C0009093BE14A093BF14B093C0140E94BFA3D3
:1047D0008AE08093AB1881E09AE59093C6148093A9
:1047E000C5148AE090E09093C8148093C71487E0C2
:1047F0008093B9141093BC1484E890E0A0E0B0E07A
:104800008093BD149093BE14A093BF14B093C014B2
:104810000E94BFA30FB6F894DEBF0FBECDBF09C381
:1048200092E0E916F10409F0B7C381E080935802E1
:104830001092441C80EA9FE0909396058093950522
:1048400081E09AE59093C6148093C51481E090E0CE
:104850009093C8148093C71487E08093B91482E8BA
:104860008093BC1484E890E0A0E0B0E08093BD1495
:104870009093BE14A093BF14B093C0140E94BFA322
:104880000E9431C58091431C8093421C1092411CB0
:104890000E9400600E94A6A30E94185F1092B011AF
:1048A0001092AF111092B5111092B6111092B7116B
:1048B0001092B8111092B9111092BA111092BB1146
:1048C0001092BC111092B1111092B2111092B3114A
:1048D0001092B4116AE58DE490E10E9417A5109240
:1048E000130E10925D100E9470A5019669F400E805
:1048F00013E0F80181918F01882319F00E94D14CB7
:10490000F8CF8AE00E94D14C89EA93E10E9438D026
:1049100010924F1C10924E1C10925B021092481C79
:1049200064EF71E080E090E00E945E5A1092461CB5
:104930001092451C0E94486F2FC38091C01188239C
:1049400009F42AC3809175149091761420918915E9
:1049500030918A152817390708F41EC381508093B7
:10496000881514ED812E10E2912EA12CB12C05E0BA
:1049700012E81092C6141092C5140093B914109343
:10498000BC148092BD149092BE14A092BF14B09239
:10499000C0140E94BFA3FFEF8F1A9F0AAF0ABF0A7D
:1049A0002EED821620E29206A104B10411F70091C7
:1049B000881582E108028001112405521A4EF8017F
:1049C00001900020E9F7A8014E1B5F0B4D5E5F4F81
:1049D00057FF02C04F5F5F4F7A01F594E7941E14B2
:1049E0001F04F4F4DE0111966D0184E1FD011192C2
:1049F0008A95E9F7A70164E573E0CD010E94CDFB3C
:104A0000B801C6018E0D9F1D0E94B8FB44ED50E217
:104A100060E070E0C6010E9477C205E012E806C0BF
:104A200044ED50E260E070E0C801F5CF1092C6148A
:104A30001092C5140093B9141093BC148092BD1445
:104A40009092BE14A092BF14B092C0140E94BFA353
:104A5000FFEF8F1A9F0AAF0ABF0A26EE821620E2E6
:104A60009206A104B10411F78E010F5F1F4F84E17C
:104A7000D8011D928A95E9F780918A158F938091CC
:104A800089158F93809176148F93809175148F93ED
:104A900085EA93E09F938F931F930F930E94DCFB13
:104AA0004EED50E260E070E0C8010E9477C262E023
:104AB00070E080E090E00E945E5A0FB6F894DEBF8E
:104AC0000FBECDBF71E2C72E72E1D72EE12CF12CC3
:104AD000E3E18E2EE0E69E2EA12CB12C0FEF1FEF0E
:104AE000F5E07F2EA2E86A2E2091891530918A1573
:104AF000C60180529241281739077CF11093C614E1
:104B00000093C5147092B9146092BC148092BD14C5
:104B10009092BE14A092BF14B092C0140E94BFA382
:104B20001092C6141092C5147092B9146092BC14FD
:104B3000C092BD14D092BE14E092BF14F092C01483
:104B40000E94BFA3F0E18F0E911CA11CB11C2FEF9E
:104B5000C21AD20AE20AF20AC7CF80917514909164
:104B6000761464E0880F991F6A95E1F78D5F9F497D
:104B7000A0E0B0E020EF37E83093C6142093C514CE
:104B800005E00093B91412E81093BC148093BD148F
:104B90009093BE14A093BF14B093C0140E94BFA3FF
:104BA0008091751490917614805E9D4EA0E0B0E0E7
:104BB00022E030E03093C6142093C5140093B9145A
:104BC0001093BC144BC18091751490917614813070
:104BD000910509F04EC18091C011882309F4DCC110
:104BE0008091881587FDD8C1A2E18A02C0011124F5
:104BF0008D5B984E9F938F938FEF92E09F938F934F
:104C00008E010F5F1F4F1F930F930E9489F10F902A
:104C10000F900F900F900F900F907E01B5E0EB0E6C
:104C2000F11CD7018C91882349F0082E000C990BB8
:104C30000E9468FBF70181937F01F3CF8091881573
:104C40008093C30584E1EFEAF5E0DF011D928A95C8
:104C5000E9F7B801CF010E94B8FB64990AC081E06E
:104C60009AE59093C6148093C5148CE290E00C945E
:104C70007418C8010E947FA58BEF92E09093BA1A36
:104C80008093B91A0E945A7DC12C50E2D52EE12C96
:104C9000F12C05E012E81092C6141092C51400938E
:104CA000B9141093BC14C092BD14D092BE14E092FB
:104CB000BF14F092C0140E94BFA3BFEFCB1ADB0A4F
:104CC000EB0AFB0AEAE0CE16E0E2DE06E104F104BC
:104CD00011F700918815F2E10F02800111240552AD
:104CE0001A4EF80101900020E9F7A8014E1B5F0B56
:104CF0004D5E5F4F57FF02C04F5F5F4F7A01F594E3
:104D0000E7941E141F04DCF46E012FE1C20ED11CC7
:104D100084E1D6011D928A95E9F7A70164E573E065
:104D2000C6010E94CDFBB801C6018E0D9F1D0E94D9
:104D3000B8FB40E050E260E070E0C60105C040E032
:104D400050E260E070E0C8010E9477C262E070E06B
:104D500080E090E00E945E5A8FEF90E090934D1CAF
:104D600080934C1C90934B1C80934A1C109206021B
:104D70008091AC189091AD180A969093C6148093C8
:104D8000C51405E00093B91412E81093BC1484E133
:104D900090E1A0E0B0E08093BD149093BE14A09386
:104DA000BF14B093C0140E94BFA38AE08093AB18D5
:104DB00062E070E080E090E00E945E5A81E09AE557
:104DC0009093C6148093C5148AE090E09093C81421
:104DD0008093C71487E08093B9141093BC1484E8BF
:104DE00090E0A0E0B0E08093BD149093BE14A09337
:104DF000BF14B093C0140E94BFA381E080935802F7
:104E00008093441C809304021092A20510928A059C
:104E10008093481C93E09093491C80932C1B81E065
:104E200090E09093880580938705109296051092E4
:104E30009505209105028091AC189091AD18211133
:104E400001C00A969093C6148093C5140093B914B8
:104E50001093BC1488E190E1A0E0B0E08093BD1411
:104E60009093BE14A093BF14B093C0140E94BFA32C
:104E700093C0892B11F40C947C178EC0809175140B
:104E8000909176148F3F910531F028F08FEF90E0EC
:104E9000A0E0B0E002C0A0E0B0E0809300029093F8
:104EA0000102A0930202B0930302C0900002D090CE
:104EB0000102E0900202F0900302C114D104E10467
:104EC000F10419F51092C6141092C51405E0009370
:104ED000B91412E81093BC148AE890E1A0E0B0E0A5
:104EE0008093BD149093BE14A093BF14B093C014CC
:104EF0000E94BFA381E090E09093C6148093C514F4
:104F00000093B9141093BC1422C0D701C6010196B6
:104F1000A11DB11D35E0B695A795979587953A9552
:104F2000D1F7BC01CD0161507109810991092AE8CD
:104F300030E140E050E00E9462A41092C61410924A
:104F4000C51485E08093B91482E88093BC148CE882
:104F500090E1A0E0B0E08093BD149093BE14A093C4
:104F6000BF14B093C0140E94BFA36C2D8EE590E0D7
:104F70000E94DBF78091000290910102A091020251
:104F8000B09103026627782F892F9A2F21EA30E00B
:104F900040E050E00E9462A480E5E9E6F4E1DF0130
:104FA0001D928A95E9F78AE580936A1485EA8093D1
:104FB0006B14E2960FB6F894DEBF0FBECDBFDF9143
:104FC000CF911F910F91FF90EF90DF90CF90BF9006
:104FD000AF909F908F907F906F9008952F923F9207
:104FE0004F925F926F927F928F929F92AF92BF92F9
:104FF000CF92DF92EF92FF920F931F93CF93DF93A5
:10500000CDB7DEB7C856D1090FB6F894DEBF0FBED4
:10501000CDBF0091421C20E6029F80011124075A57
:10502000194F8091D60880FF1AC0EAE2FCE1849112
:105030007F013FEFE31AF30A811102C0780104C037
:105040000E94D14CF701F3CFD7018D917D018823C8
:1050500019F00E94D14CF8CF8AE00E94D14C81E037
:1050600090E09093241580932315109216061092C9
:1050700015068FE3809319061092180610921706F2
:105080001092FC051092FD051092FE051092FF058E
:10509000F80180810F5F1F4F8032D1F38E34B1F45D
:1050A000818190ED980F9A3020F08D3211F08B3283
:1050B00069F43296DF0131962C9120532A30D0F3D7
:1050C000CD01FC01019620812032D9F3F0932B15FC
:1050D000E0932A157F01BFEFEB1AFB0A10816AE209
:1050E00070E0C7010E94A4FB009731F0FC013197EA
:1050F00080818032E1F311821D3429F0143519F0DA
:10510000173409F0CFC0F70180812FEFE21AF20ABD
:105110008032C9F380538A3008F0C4C01093190656
:1051200020911706309118064AE03196429FC0013F
:10513000439F900D1124DF0111972C91022E000C3A
:10514000330B20533109280F391F808180538A3057
:1051500060F33093180620931706DF0131968C9187
:105160008032D9F31D3449F000912A15409115067B
:105170005091160661E070E058C02E31310591F073
:105180003CF42731310571F02C31310569F70AC043
:10519000253731054CF32737310524F0203A43E019
:1051A000340711F7B0931606A09315067BC0813221
:1051B00009F445C09FEBB92EB80E89E1A82EAB14B7
:1051C00008F45EC0DF01FD01908111969032D9F3A1
:1051D000A0EDA90FAA3008F047C04F01EB2CF12C2D
:1051E0006701A3E0D594C794AA95E1F7C60184505E
:1051F0009A4F6C018B2D8770DB0102C0AA0FBB1F79
:105200008A95E2F7CD01D6019C91892B8C9381146C
:105210009104A1F1801AC7018E519A4FDC018C9242
:10522000808181548A3188F5DF01FD0131968C91AE
:105230008111BDCF509316064093150633C01D341F
:1052400009F0B8CF2032310509F0B4CFF09316063B
:10525000E093150663E270E0CF010E94A4FB009783
:1052600009F1DC011C921EC0A3EDA90FA23008F4C5
:10527000B4CF9B3211F00C949841AFCF812CCBCF9F
:105280004115510569F6AD01CBCFDF0131969C91F7
:1052900090539A30D0F3CD01FC010196A081A03249
:1052A000D9F3C2CF809119068D3411F40C94543483
:1052B000843511F40C943641873411F00C94774105
:1052C00080911706909118068C31910509F413C648
:1052D00084F48430910544F4823091050CF070C060
:1052E00097FF2BC00C949141049709F4C7C50C9407
:1052F00091418A32910511F40C949E335CF48D3106
:10530000910511F40C9460324E9711F40C946432B0
:105310000C9491418B35910511F40C94EA328C3543
:10532000910511F40C94EF328A35910511F00C942B
:105330009141109213060C9491418091340288237C
:1053400011F40C9491410E94CFB80E9451B3809106
:105350008A05813029F482E080938A050C9491417A
:105360009091BF11992311F40C949141823011F462
:105370000C94914180919B0590919C05893B9105EE
:1053800014F40C94A03B60919B0570919C05072E32
:10539000000C880B990B0E94BEF19B01AC0160913F
:1053A0009D0570919E0580919F059091A0050E949A
:1053B000B8F187FD02C00C94A03B0E9475B0E3CF0A
:1053C00020913402222311F40C94914111E00297B0
:1053D00009F010E00E94CFB882E50E949B7E8823EE
:1053E00009F43CC10E94397E6B017C014090511C44
:1053F0005090521C6090531C7090541C2091551C6E
:105400003091561C4091571C5091581C2DA73EA717
:105410004FA758AB80913F1590914015A091411531
:10542000B091421589AB9AABABABBCAB20914315A5
:1054300030914415409145155091461529AF3AAF2A
:105440004BAF5CAF20E030E0A901C701B6010E947C
:10545000B8F1882309F4F8C4A301920169A97AA9D3
:105460008BA99CA90E94B8F181110DC02DA53EA564
:105470004FA558A969AD7AAD8BAD9CAD0E94B8F12E
:10548000882309F4E1C420E030E0A901C701B60196
:105490000E94B8F1881F8827881F18130BC080E06E
:1054A00090E0A0E8BFE329968CAF9DAFAEAFBFAF51
:1054B00029970AC020E030E040E85FEB29962CAF46
:1054C0003DAF4EAF5FAF2997A301920169A97AA9B9
:1054D0008BA99CA90E9455F821966CAF7DAF8EAF29
:1054E0009FAF21972DA53EA54FA558A969AD7AADCF
:1054F0008BAD9CAD0E9455F825966CAF7DAF8EAFFD
:105500009FAF259721962CAD3DAD4EAD5FAD219758
:10551000CA01B9010E941DF24B015C0125962CAD18
:105520003DAD4EAD5FAD2597CA01B9010E941DF298
:105530009B01AC01C501B4010E9456F80E94C2FA59
:105540006DAB7EAB8FAB98AF20E030E040E05FE327
:105550000E941DF24B015C01A7019601C701B60133
:105560000E941DF26B017C01A5019401C501B401EB
:105570000E941DF29B01AC01C701B6010E9455F8C3
:105580000E94C2FA9B01AC0129966CAD7DAD8EAD37
:105590009FAD29970E941DF24B015C0129A93AA9F0
:1055A0004BA95CA9C301B2010E9456F820E030E08B
:1055B00040E05FE30E941DF26B017C0125966CAD1B
:1055C0007DAD8EAD9FAD259790582DA93EA94FA9D1
:1055D00058AD0E9432F99B01AC01C501B4010E9493
:1055E0001DF29B01AC01C701B6010E9456F8A30150
:1055F00092010E9455F86B017C0129AD3AAD4BAD8B
:105600005CAD6DA57EA58FA598A90E9456F820E0F7
:1056100030E040E05FE30E941DF22B013C012DA928
:105620003EA94FA958AD21966CAD7DAD8EAD9FAD15
:1056300021970E9432F99B01AC01C501B4010E947F
:105640001DF29B01AC01C301B2010E9456F82DA5C9
:105650003EA54FA558A90E9455F814C089E40E94A0
:105660009B7E882329F00E94397E6B017C0103C058
:10567000C12CD12C76018AE40E949B7E8823D9F02C
:105680000E94397E69AF7AAF8BAF9CAF20E030E0EB
:10569000A901C701B6010E94B8F181111AC020E02A
:1056A00030E0A90169AD7AAD8BAD9CAD0E94B8F137
:1056B00081110FC0C9C320E030E0A901C701B601C4
:1056C0000E94B8F1882309F4BFC319AE1AAE1BAE0D
:1056D0001CAED701C601B0588DA79EA7AFA7B8AB27
:1056E00029AD3AAD4BAD5CAD505829AB3AAB4BABA5
:1056F0005CAB9C01AD01BC01CD010E941DF24B01D0
:105700005C0129A93AA94BA95CA9CA01B9010E9467
:105710001DF29B01AC01C501B4010E9456F80E9424
:10572000C2FA69966CAF7DAF8EAF9FAF69978091DB
:10573000511C9091521CA091531CB091541C8DABE4
:105740009EABAFABB8AFA7019601BC01CD010E94E3
:1057500056F829966CAF7DAF8EAF9FAF29972091F9
:10576000551C3091561C4091571C5091581C219645
:105770002CAF3DAF4EAF5FAF219729AD3AAD4BADEA
:105780005CAD21966CAD7DAD8EAD9FAD21970E9435
:1057900056F82D966CAF7DAF8EAF9FAF2D97809151
:1057A0003F1590914015A0914115B0914215619619
:1057B0008CAF9DAFAEAFBFAF619729962CAD3DAD1D
:1057C0004EAD5FAD2997BC01CD010E9455F86B012C
:1057D0007C0120914315309144154091451550911D
:1057E000461565962CAF3DAF4EAF5FAF65972D96D2
:1057F0002CAD3DAD4EAD5FAD2D9765966CAD7DADDD
:105800008EAD9FAD65970E9455F84B015C0180916C
:10581000591C90915A1CA0915B1CB0915C1CA196E4
:105820008CAF9DAFAEAFBFAFA1979C01AD016091B2
:105830004715709148158091491590914A150E941D
:1058400055F825966CAF7DAF8EAF9FAF2597209111
:105850004B1530914C1540914D1550914E156D964C
:105860002CAF3DAF4EAF5FAF6D9780915D1C9091B7
:105870005E1CA0915F1CB091601CA5968CAF9DAF83
:10588000AEAFBFAFA597A70196016DA57EA58FA569
:1058900098A90E941DF22B013C01A501940169A960
:1058A0007AA98BA99CA90E941DF29B01AC01C3019E
:1058B000B2010E9456F82B013C01A50194016DA58F
:1058C0007EA58FA598A90E941DF24B015C01A7013E
:1058D000960169A97AA98BA99CA90E941DF29B0136
:1058E000AC01C501B4010E9455F8A30192010E94C8
:1058F000C9F86B017C0120E030E0A9010E94B8F1F9
:1059000087FF0AC02BED3FE049EC50E4C701B60128
:105910000E9456F86B017C01112351F02BED3FE002
:1059200049EC50E4C701B6010E9455F86B017C01B7
:1059300020E030E0A901C701B6010E94B8F1811151
:1059400026C061962CAD3DAD4EAD5FAD61976DA9A2
:105950007EA98FA998AD0E94B8F1811118C06596F3
:105960002CAD3DAD4EAD5FAD659721966CAD7DAD77
:105970008EAD9FAD21970E94B8F1811108C05BEDFB
:10598000C52E5FE0D52E59ECE52E50E4F52E699634
:105990002CAD3DAD4EAD5FAD6997C701B6010E941C
:1059A0001DF29B01AC010E941DF24B015C0125968A
:1059B0002CAD3DAD4EAD5FAD2597CA01B9010E943A
:1059C0001DF29B01AC01C501B4010E9456F80E9472
:1059D000C2FA4B015C012FE632E143E85AE30E9430
:1059E000B8F187FD2DC2C501B4010E94CBF90E9418
:1059F0009FF97EAF6DAF672B21F421E030E03EAF21
:105A00002DAFADACBEACB50180E090E00E94BCF122
:105A10004B015C019B01AC01C701B6010E9432F948
:105A20006DAB7EAB8FAB98AFA501940125966CADA5
:105A30007DAD8EAD9FAD25970E9432F969966CAF12
:105A40007DAF8EAF9FAF6997A5962CAD3DAD4EADA6
:105A50005FADA5976D966CAD7DAD8EAD9FAD6D972D
:105A60000E9455F8A50194010E9432F96D966CAF21
:105A70007DAF8EAF9FAF6D972DA93EA94FA958ADB1
:105A8000CA01B9010E941DF220E030E040E05FE36E
:105A90000E941DF29B01AC0160E070E080E89FE392
:105AA0000E9455F825966CAF7DAF8EAF9FAF2597BE
:105AB000A1962CAD3DAD4EAD5FADA19729873A873C
:105AC0004B875C87A5968CAD9DADAEADBFADA59760
:105AD0008D879E87AF87B88B6091590270915A026B
